{
  "contractName": "DoctorConsultancy",
  "abi": [
    {
      "anonymous": false,
      "inputs": [
        {
          "indexed": true,
          "internalType": "string",
          "name": "recordId",
          "type": "string"
        },
        {
          "indexed": true,
          "internalType": "string",
          "name": "patientHHNumber",
          "type": "string"
        },
        {
          "indexed": false,
          "internalType": "address",
          "name": "doctorWallet",
          "type": "address"
        },
        {
          "indexed": false,
          "internalType": "string",
          "name": "patientName",
          "type": "string"
        },
        {
          "indexed": false,
          "internalType": "string",
          "name": "gender",
          "type": "string"
        },
        {
          "indexed": false,
          "internalType": "string",
          "name": "diagnosis",
          "type": "string"
        },
        {
          "indexed": false,
          "internalType": "string",
          "name": "prescription",
          "type": "string"
        },
        {
          "indexed": false,
          "internalType": "uint256",
          "name": "timestamp",
          "type": "uint256"
        }
      ],
      "name": "RecordCreated",
      "type": "event"
    },
    {
      "inputs": [
        {
          "internalType": "string",
          "name": "",
          "type": "string"
        }
      ],
      "name": "isRecordCreated",
      "outputs": [
        {
          "internalType": "bool",
          "name": "",
          "type": "bool"
        }
      ],
      "stateMutability": "view",
      "type": "function",
      "constant": true
    },
    {
      "inputs": [
        {
          "internalType": "string",
          "name": "_recordId",
          "type": "string"
        },
        {
          "internalType": "string",
          "name": "_patientHHNumber",
          "type": "string"
        },
        {
          "internalType": "address",
          "name": "_doctorWallet",
          "type": "address"
        },
        {
          "internalType": "string",
          "name": "_patientName",
          "type": "string"
        },
        {
          "internalType": "string",
          "name": "_gender",
          "type": "string"
        },
        {
          "internalType": "string",
          "name": "_diagnosis",
          "type": "string"
        },
        {
          "internalType": "string",
          "name": "_prescription",
          "type": "string"
        }
      ],
      "name": "createConsultationRecord",
      "outputs": [],
      "stateMutability": "nonpayable",
      "type": "function"
    },
    {
      "inputs": [
        {
          "internalType": "string",
          "name": "_patientHHNumber",
          "type": "string"
        }
      ],
      "name": "getMyConsultationRecords",
      "outputs": [
        {
          "components": [
            {
              "internalType": "string",
              "name": "recordId",
              "type": "string"
            },
            {
              "internalType": "address",
              "name": "doctorWallet",
              "type": "address"
            },
            {
              "internalType": "string",
              "name": "patientName",
              "type": "string"
            },
            {
              "internalType": "string",
              "name": "gender",
              "type": "string"
            },
            {
              "internalType": "string",
              "name": "diagnosis",
              "type": "string"
            },
            {
              "internalType": "string",
              "name": "prescription",
              "type": "string"
            },
            {
              "internalType": "uint256",
              "name": "timestamp",
              "type": "uint256"
            }
          ],
          "internalType": "struct DoctorConsultancy.Consultation[]",
          "name": "",
          "type": "tuple[]"
        }
      ],
      "stateMutability": "view",
      "type": "function",
      "constant": true
    },
    {
      "inputs": [
        {
          "internalType": "string",
          "name": "_patientHHNumber",
          "type": "string"
        }
      ],
      "name": "getConsultationCount",
      "outputs": [
        {
          "internalType": "uint256",
          "name": "",
          "type": "uint256"
        }
      ],
      "stateMutability": "view",
      "type": "function",
      "constant": true
    }
  ],
  "bytecode": "0x608060405234801561001057600080fd5b50611240806100206000396000f3fe608060405234801561001057600080fd5b506004361061004c5760003560e01c80630f2add2d146100515780634a9277931461006d57806374ec84971461009d578063e82555f2146100cd575b600080fd5b61006b6004803603810190610066919061093b565b6100fd565b005b61008760048036038101906100829190610a85565b61036c565b6040516100949190610ae7565b60405180910390f35b6100b760048036038101906100b29190610a85565b610396565b6040516100c49190610d19565b60405180910390f35b6100e760048036038101906100e29190610a85565b61074d565b6040516100f49190610d56565b60405180910390f35b60018760405161010d9190610dad565b908152602001604051809103902060009054906101000a900460ff1615610169576040517f08c379a000000000000000000000000000000000000000000000000000000000815260040161016090610e47565b60405180910390fd5b60006040518060e001604052808981526020018773ffffffffffffffffffffffffffffffffffffffff1681526020018681526020018581526020018481526020018381526020014281525090506000876040516101c69190610dad565b908152602001604051809103902081908060018154018082558091505060019003906000526020600020906007020160009091909190915060008201518160000190816102139190611073565b5060208201518160010160006101000a81548173ffffffffffffffffffffffffffffffffffffffff021916908373ffffffffffffffffffffffffffffffffffffffff16021790555060408201518160020190816102709190611073565b5060608201518160030190816102869190611073565b50608082015181600401908161029c9190611073565b5060a08201518160050190816102b29190611073565b5060c082015181600601555050600180896040516102d09190610dad565b908152602001604051809103902060006101000a81548160ff021916908315150217905550866040516103039190610dad565b6040518091039020886040516103199190610dad565b60405180910390207f054df4dd1aa7905c1f1f9e7158795177a646529fb8de6dc4487bc96ef4ec85eb88888888884260405161035a9695949392919061118d565b60405180910390a35050505050505050565b6000808260405161037d9190610dad565b9081526020016040518091039020805490509050919050565b60606000826040516103a89190610dad565b9081526020016040518091039020805480602002602001604051908101604052809291908181526020016000905b8282101561074257838290600052602060002090600702016040518060e001604052908160008201805461040990610e96565b80601f016020809104026020016040519081016040528092919081815260200182805461043590610e96565b80156104825780601f1061045757610100808354040283529160200191610482565b820191906000526020600020905b81548152906001019060200180831161046557829003601f168201915b505050505081526020016001820160009054906101000a900473ffffffffffffffffffffffffffffffffffffffff1673ffffffffffffffffffffffffffffffffffffffff1673ffffffffffffffffffffffffffffffffffffffff1681526020016002820180546104f190610e96565b80601f016020809104026020016040519081016040528092919081815260200182805461051d90610e96565b801561056a5780601f1061053f5761010080835404028352916020019161056a565b820191906000526020600020905b81548152906001019060200180831161054d57829003601f168201915b5050505050815260200160038201805461058390610e96565b80601f01602080910402602001604051908101604052809291908181526020018280546105af90610e96565b80156105fc5780601f106105d1576101008083540402835291602001916105fc565b820191906000526020600020905b8154815290600101906020018083116105df57829003601f168201915b5050505050815260200160048201805461061590610e96565b80601f016020809104026020016040519081016040528092919081815260200182805461064190610e96565b801561068e5780601f106106635761010080835404028352916020019161068e565b820191906000526020600020905b81548152906001019060200180831161067157829003601f168201915b505050505081526020016005820180546106a790610e96565b80601f01602080910402602001604051908101604052809291908181526020018280546106d390610e96565b80156107205780601f106106f557610100808354040283529160200191610720565b820191906000526020600020905b81548152906001019060200180831161070357829003601f168201915b50505050508152602001600682015481525050815260200190600101906103d6565b505050509050919050565b6001818051602081018201805184825260208301602085012081835280955050505050506000915054906101000a900460ff1681565b6000604051905090565b600080fd5b600080fd5b600080fd5b600080fd5b6000601f19601f8301169050919050565b7f4e487b7100000000000000000000000000000000000000000000000000000000600052604160045260246000fd5b6107ea826107a1565b810181811067ffffffffffffffff82111715610809576108086107b2565b5b80604052505050565b600061081c610783565b905061082882826107e1565b919050565b600067ffffffffffffffff821115610848576108476107b2565b5b610851826107a1565b9050602081019050919050565b82818337600083830152505050565b600061088061087b8461082d565b610812565b90508281526020810184848401111561089c5761089b61079c565b5b6108a784828561085e565b509392505050565b600082601f8301126108c4576108c3610797565b5b81356108d484826020860161086d565b91505092915050565b600073ffffffffffffffffffffffffffffffffffffffff82169050919050565b6000610908826108dd565b9050919050565b610918816108fd565b811461092357600080fd5b50565b6000813590506109358161090f565b92915050565b600080600080600080600060e0888a03121561095a5761095961078d565b5b600088013567ffffffffffffffff81111561097857610977610792565b5b6109848a828b016108af565b975050602088013567ffffffffffffffff8111156109a5576109a4610792565b5b6109b18a828b016108af565b96505060406109c28a828b01610926565b955050606088013567ffffffffffffffff8111156109e3576109e2610792565b5b6109ef8a828b016108af565b945050608088013567ffffffffffffffff811115610a1057610a0f610792565b5b610a1c8a828b016108af565b93505060a088013567ffffffffffffffff811115610a3d57610a3c610792565b5b610a498a828b016108af565b92505060c088013567ffffffffffffffff811115610a6a57610a69610792565b5b610a768a828b016108af565b91505092959891949750929550565b600060208284031215610a9b57610a9a61078d565b5b600082013567ffffffffffffffff811115610ab957610ab8610792565b5b610ac5848285016108af565b91505092915050565b6000819050919050565b610ae181610ace565b82525050565b6000602082019050610afc6000830184610ad8565b92915050565b600081519050919050565b600082825260208201905092915050565b6000819050602082019050919050565b600081519050919050565b600082825260208201905092915050565b60005b83811015610b68578082015181840152602081019050610b4d565b60008484015250505050565b6000610b7f82610b2e565b610b898185610b39565b9350610b99818560208601610b4a565b610ba2816107a1565b840191505092915050565b610bb6816108fd565b82525050565b610bc581610ace565b82525050565b600060e0830160008301518482036000860152610be88282610b74565b9150506020830151610bfd6020860182610bad565b5060408301518482036040860152610c158282610b74565b91505060608301518482036060860152610c2f8282610b74565b91505060808301518482036080860152610c498282610b74565b91505060a083015184820360a0860152610c638282610b74565b91505060c0830151610c7860c0860182610bbc565b508091505092915050565b6000610c8f8383610bcb565b905092915050565b6000602082019050919050565b6000610caf82610b02565b610cb98185610b0d565b935083602082028501610ccb85610b1e565b8060005b85811015610d075784840389528151610ce88582610c83565b9450610cf383610c97565b925060208a01995050600181019050610ccf565b50829750879550505050505092915050565b60006020820190508181036000830152610d338184610ca4565b905092915050565b60008115159050919050565b610d5081610d3b565b82525050565b6000602082019050610d6b6000830184610d47565b92915050565b600081905092915050565b6000610d8782610b2e565b610d918185610d71565b9350610da1818560208601610b4a565b80840191505092915050565b6000610db98284610d7c565b915081905092915050565b600082825260208201905092915050565b7f5265636f72642077697468207468697320494420616c7265616479206578697360008201527f74732e0000000000000000000000000000000000000000000000000000000000602082015250565b6000610e31602383610dc4565b9150610e3c82610dd5565b604082019050919050565b60006020820190508181036000830152610e6081610e24565b9050919050565b7f4e487b7100000000000000000000000000000000000000000000000000000000600052602260045260246000fd5b60006002820490506001821680610eae57607f821691505b602082108103610ec157610ec0610e67565b5b50919050565b60008190508160005260206000209050919050565b60006020601f8301049050919050565b600082821b905092915050565b600060088302610f297fffffffffffffffffffffffffffffffffffffffffffffffffffffffffffffffff82610eec565b610f338683610eec565b95508019841693508086168417925050509392505050565b6000819050919050565b6000610f70610f6b610f6684610ace565b610f4b565b610ace565b9050919050565b6000819050919050565b610f8a83610f55565b610f9e610f9682610f77565b848454610ef9565b825550505050565b600090565b610fb3610fa6565b610fbe818484610f81565b505050565b5b81811015610fe257610fd7600082610fab565b600181019050610fc4565b5050565b601f82111561102757610ff881610ec7565b61100184610edc565b81016020851015611010578190505b61102461101c85610edc565b830182610fc3565b50505b505050565b600082821c905092915050565b600061104a6000198460080261102c565b1980831691505092915050565b60006110638383611039565b9150826002028217905092915050565b61107c82610b2e565b67ffffffffffffffff811115611095576110946107b2565b5b61109f8254610e96565b6110aa828285610fe6565b600060209050601f8311600181146110dd57600084156110cb578287015190505b6110d58582611057565b86555061113d565b601f1984166110eb86610ec7565b60005b82811015611113578489015182556001820191506020850194506020810190506110ee565b86831015611130578489015161112c601f891682611039565b8355505b6001600288020188555050505b505050505050565b61114e816108fd565b82525050565b600061115f82610b2e565b6111698185610dc4565b9350611179818560208601610b4a565b611182816107a1565b840191505092915050565b600060c0820190506111a26000830189611145565b81810360208301526111b48188611154565b905081810360408301526111c88187611154565b905081810360608301526111dc8186611154565b905081810360808301526111f08185611154565b90506111ff60a0830184610ad8565b97965050505050505056fea2646970667358221220805715ae71088a8cc862d302d5ef712e6d04b1a7aad965134c1b9c86dfa737cd64736f6c63430008130033",
  "immutableReferences": {},
  "source": "// SPDX-License-Identifier: MIT\r\npragma solidity ^0.8.19;\r\n\r\ncontract DoctorConsultancy {\r\n    struct Consultation {\r\n        string recordId;\r\n        address doctorWallet;\r\n        string patientName;\r\n        string gender;\r\n        string diagnosis;\r\n        string prescription;\r\n        uint256 timestamp;\r\n    }\r\n    \r\n    mapping(string => Consultation[]) private patientConsultations;\r\n    mapping(string => bool) public isRecordCreated;\r\n\r\n    event RecordCreated(\r\n        string indexed recordId,\r\n        string indexed patientHHNumber,\r\n        address doctorWallet,\r\n        string patientName,\r\n        string gender,\r\n        string diagnosis,\r\n        string prescription,\r\n        uint256 timestamp\r\n    );\r\n\r\n    function createConsultationRecord(\r\n        string memory _recordId,\r\n        string memory _patientHHNumber,\r\n        address _doctorWallet,\r\n        string memory _patientName,\r\n        string memory _gender,\r\n        string memory _diagnosis,\r\n        string memory _prescription\r\n    ) external {\r\n        require(!isRecordCreated[_recordId], \"Record with this ID already exists.\");\r\n\r\n        Consultation memory newRecord = Consultation({\r\n            recordId: _recordId,\r\n            doctorWallet: _doctorWallet,\r\n            patientName: _patientName,\r\n            gender: _gender,\r\n            diagnosis: _diagnosis,\r\n            prescription: _prescription,\r\n            timestamp: block.timestamp\r\n        });\r\n\r\n        patientConsultations[_patientHHNumber].push(newRecord);\r\n        isRecordCreated[_recordId] = true;\r\n\r\n        emit RecordCreated(\r\n            _recordId,\r\n            _patientHHNumber,\r\n            _doctorWallet,\r\n            _patientName,\r\n            _gender,\r\n            _diagnosis,\r\n            _prescription,\r\n            block.timestamp\r\n        );\r\n    }\r\n\r\n    function getMyConsultationRecords(string memory _patientHHNumber)\r\n        external\r\n        view\r\n        returns (Consultation[] memory)\r\n    {\r\n        return patientConsultations[_patientHHNumber];\r\n    }\r\n    \r\n    function getConsultationCount(string memory _patientHHNumber) external view returns (uint256) {\r\n        return patientConsultations[_patientHHNumber].length;\r\n    }\r\n}\r\n",
  "sourcePath": "D:\\final_year_project\\src\\contracts\\DoctorConsultancy.sol",
  "compiler": {
    "name": "solc",
    "version": "0.8.19+commit.7dd6d404.Emscripten.clang"
  },
  "schemaVersion": "3.4.16",
  "updatedAt": "2025-04-07T20:14:21.446Z",
  "networkType": "ethereum",
  "devdoc": {
    "kind": "dev",
    "methods": {},
    "version": 1
  },
  "userdoc": {
    "kind": "user",
    "methods": {},
    "version": 1
  }
}