{
  "contractName": "PatientRegistration",
  "abi": [
    {
      "anonymous": false,
      "inputs": [
        {
          "indexed": false,
          "internalType": "string",
          "name": "patientNumber",
          "type": "string"
        },
        {
          "indexed": false,
          "internalType": "string",
          "name": "doctorNumber",
          "type": "string"
        }
      ],
      "name": "DoctorPermissionRevoked",
      "type": "event"
    },
    {
      "anonymous": false,
      "inputs": [
        {
          "indexed": false,
          "internalType": "string",
          "name": "hhNumber",
          "type": "string"
        },
        {
          "indexed": false,
          "internalType": "string",
          "name": "name",
          "type": "string"
        },
        {
          "indexed": false,
          "internalType": "address",
          "name": "walletAddress",
          "type": "address"
        }
      ],
      "name": "PatientRegistered",
      "type": "event"
    },
    {
      "inputs": [
        {
          "internalType": "string",
          "name": "",
          "type": "string"
        },
        {
          "internalType": "string",
          "name": "",
          "type": "string"
        }
      ],
      "name": "doctorPermissions",
      "outputs": [
        {
          "internalType": "bool",
          "name": "",
          "type": "bool"
        }
      ],
      "stateMutability": "view",
      "type": "function",
      "constant": true
    },
    {
      "inputs": [
        {
          "internalType": "string",
          "name": "",
          "type": "string"
        }
      ],
      "name": "isPatientRegistered",
      "outputs": [
        {
          "internalType": "bool",
          "name": "",
          "type": "bool"
        }
      ],
      "stateMutability": "view",
      "type": "function",
      "constant": true
    },
    {
      "inputs": [
        {
          "internalType": "string",
          "name": "",
          "type": "string"
        }
      ],
      "name": "patients",
      "outputs": [
        {
          "internalType": "address",
          "name": "walletAddress",
          "type": "address"
        },
        {
          "internalType": "string",
          "name": "name",
          "type": "string"
        },
        {
          "internalType": "string",
          "name": "dateOfBirth",
          "type": "string"
        },
        {
          "internalType": "string",
          "name": "gender",
          "type": "string"
        },
        {
          "internalType": "string",
          "name": "bloodGroup",
          "type": "string"
        },
        {
          "internalType": "string",
          "name": "homeAddress",
          "type": "string"
        },
        {
          "internalType": "string",
          "name": "email",
          "type": "string"
        },
        {
          "internalType": "string",
          "name": "hhNumber",
          "type": "string"
        },
        {
          "internalType": "string",
          "name": "password",
          "type": "string"
        }
      ],
      "stateMutability": "view",
      "type": "function",
      "constant": true
    },
    {
      "inputs": [
        {
          "internalType": "address",
          "name": "_walletAddress",
          "type": "address"
        },
        {
          "internalType": "string",
          "name": "_name",
          "type": "string"
        },
        {
          "internalType": "string",
          "name": "_dateOfBirth",
          "type": "string"
        },
        {
          "internalType": "string",
          "name": "_gender",
          "type": "string"
        },
        {
          "internalType": "string",
          "name": "_bloodGroup",
          "type": "string"
        },
        {
          "internalType": "string",
          "name": "_homeAddress",
          "type": "string"
        },
        {
          "internalType": "string",
          "name": "_email",
          "type": "string"
        },
        {
          "internalType": "string",
          "name": "_hhNumber",
          "type": "string"
        },
        {
          "internalType": "string",
          "name": "_password",
          "type": "string"
        }
      ],
      "name": "registerPatient",
      "outputs": [],
      "stateMutability": "nonpayable",
      "type": "function"
    },
    {
      "inputs": [
        {
          "internalType": "string",
          "name": "_hhNumber",
          "type": "string"
        }
      ],
      "name": "isRegisteredPatient",
      "outputs": [
        {
          "internalType": "bool",
          "name": "",
          "type": "bool"
        }
      ],
      "stateMutability": "view",
      "type": "function",
      "constant": true
    },
    {
      "inputs": [
        {
          "internalType": "string",
          "name": "_hhNumber",
          "type": "string"
        },
        {
          "internalType": "string",
          "name": "_password",
          "type": "string"
        }
      ],
      "name": "validatePassword",
      "outputs": [
        {
          "internalType": "bool",
          "name": "",
          "type": "bool"
        }
      ],
      "stateMutability": "view",
      "type": "function",
      "constant": true
    },
    {
      "inputs": [
        {
          "internalType": "string",
          "name": "_hhNumber",
          "type": "string"
        }
      ],
      "name": "getPatientDetails",
      "outputs": [
        {
          "internalType": "address",
          "name": "walletAddress",
          "type": "address"
        },
        {
          "internalType": "string",
          "name": "name",
          "type": "string"
        },
        {
          "internalType": "string",
          "name": "dateOfBirth",
          "type": "string"
        },
        {
          "internalType": "string",
          "name": "gender",
          "type": "string"
        },
        {
          "internalType": "string",
          "name": "bloodGroup",
          "type": "string"
        },
        {
          "internalType": "string",
          "name": "homeAddress",
          "type": "string"
        },
        {
          "internalType": "string",
          "name": "email",
          "type": "string"
        }
      ],
      "stateMutability": "view",
      "type": "function",
      "constant": true
    },
    {
      "inputs": [
        {
          "internalType": "string",
          "name": "_patientNumber",
          "type": "string"
        },
        {
          "internalType": "string",
          "name": "_doctorNumber",
          "type": "string"
        },
        {
          "internalType": "string",
          "name": "_patientName",
          "type": "string"
        }
      ],
      "name": "grantPermission",
      "outputs": [],
      "stateMutability": "nonpayable",
      "type": "function"
    },
    {
      "inputs": [
        {
          "internalType": "string",
          "name": "_patientNumber",
          "type": "string"
        },
        {
          "internalType": "string",
          "name": "_doctorNumber",
          "type": "string"
        }
      ],
      "name": "revokePermission",
      "outputs": [],
      "stateMutability": "nonpayable",
      "type": "function"
    },
    {
      "inputs": [
        {
          "internalType": "string",
          "name": "_patientNumber",
          "type": "string"
        },
        {
          "internalType": "string",
          "name": "_doctorNumber",
          "type": "string"
        }
      ],
      "name": "isPermissionGranted",
      "outputs": [
        {
          "internalType": "bool",
          "name": "",
          "type": "bool"
        }
      ],
      "stateMutability": "view",
      "type": "function",
      "constant": true
    },
    {
      "inputs": [
        {
          "internalType": "string",
          "name": "_doctorNumber",
          "type": "string"
        }
      ],
      "name": "getPatientList",
      "outputs": [
        {
          "components": [
            {
              "internalType": "string",
              "name": "patient_number",
              "type": "string"
            },
            {
              "internalType": "string",
              "name": "patient_name",
              "type": "string"
            }
          ],
          "internalType": "struct PatientRegistration.PatientList[]",
          "name": "",
          "type": "tuple[]"
        }
      ],
      "stateMutability": "view",
      "type": "function",
      "constant": true
    }
  ],
  "bytecode": "0x608060405234801561001057600080fd5b506129b3806100206000396000f3fe608060405234801561001057600080fd5b50600436106100a95760003560e01c806391c12f761161007157806391c12f7614610176578063ac5f9fd0146101a6578063c6009d84146101c2578063d120c10c146101fa578063ea977fc81461022a578063f725264114610260576100a9565b806344334733146100ae5780634f10c6c2146100de57806357812a081461010e5780635df670401461012a5780637babdb2614610146575b600080fd5b6100c860048036038101906100c39190611a4b565b610290565b6040516100d59190611ade565b60405180910390f35b6100f860048036038101906100f39190611af9565b6102eb565b6040516101059190611ade565b60405180910390f35b61012860048036038101906101239190611ba0565b610321565b005b610144600480360381019061013f9190611d4a565b61057f565b005b610160600480360381019061015b9190611a4b565b6107d3565b60405161016d9190611ade565b60405180910390f35b610190600480360381019061018b9190611af9565b6108b6565b60405161019d9190611f76565b60405180910390f35b6101c060048036038101906101bb9190611a4b565b610a57565b005b6101dc60048036038101906101d79190611af9565b610d83565b6040516101f199989796959493929190611ff1565b60405180910390f35b610214600480360381019061020f9190611a4b565b611247565b6040516102219190611ade565b60405180910390f35b610244600480360381019061023f9190611af9565b611299565b60405161025797969594939291906120b6565b60405180910390f35b61027a60048036038101906102759190611af9565b611860565b6040516102879190611ade565b60405180910390f35b600382805160208101820180518482526020830160208501208183528095505050505050818051602081018201805184825260208301602085012081835280955050505050506000915091509054906101000a900460ff1681565b6000818051602081018201805184825260208301602085012081835280955050505050506000915054906101000a900460ff1681565b600082604051610331919061218b565b908152602001604051809103902060009054906101000a900460ff161561038d576040517f08c379a0000000000000000000000000000000000000000000000000000000008152600401610384906121ee565b60405180910390fd5b60006040518061012001604052808b73ffffffffffffffffffffffffffffffffffffffff1681526020018a8152602001898152602001888152602001878152602001868152602001858152602001848152602001838152509050806001846040516103f8919061218b565b908152602001604051809103902060008201518160000160006101000a81548173ffffffffffffffffffffffffffffffffffffffff021916908373ffffffffffffffffffffffffffffffffffffffff16021790555060208201518160010190816104629190612424565b5060408201518160020190816104789190612424565b50606082015181600301908161048e9190612424565b5060808201518160040190816104a49190612424565b5060a08201518160050190816104ba9190612424565b5060c08201518160060190816104d09190612424565b5060e08201518160070190816104e69190612424565b506101008201518160080190816104fd9190612424565b509050506001600084604051610513919061218b565b908152602001604051809103902060006101000a81548160ff0219169083151502179055507f319ae3a95b9a410d647835a7e64d54ddf28faf35a698f0a2b63999585fa38edc838a8c60405161056b939291906124f6565b60405180910390a150505050505050505050565b60038360405161058f919061218b565b9081526020016040518091039020826040516105ab919061218b565b908152602001604051809103902060009054906101000a900460ff1615610607576040517f08c379a00000000000000000000000000000000000000000000000000000000081526004016105fe906125ad565b60405180910390fd5b6000805b60028460405161061b919061218b565b9081526020016040518091039020805490508110156106e35784604051602001610645919061218b565b6040516020818303038152906040528051906020012060028560405161066b919061218b565b9081526020016040518091039020828154811061068b5761068a6125cd565b5b90600052602060002090600202016000016040516020016106ac919061267f565b60405160208183030381529060405280519060200120036106d057600191506106e3565b80806106db906126c5565b91505061060b565b508061077a5760006040518060400160405280868152602001848152509050600284604051610712919061218b565b9081526020016040518091039020819080600181540180825580915050600190039060005260206000209060020201600090919091909150600082015181600001908161075f9190612424565b5060208201518160010190816107759190612424565b505050505b600160038560405161078c919061218b565b9081526020016040518091039020846040516107a8919061218b565b908152602001604051809103902060006101000a81548160ff02191690831515021790555050505050565b600080836040516107e4919061218b565b908152602001604051809103902060009054906101000a900460ff1661083f576040517f08c379a000000000000000000000000000000000000000000000000000000000815260040161083690612759565b60405180910390fd5b60018360405161084f919061218b565b9081526020016040518091039020600801604051602001610870919061267f565b6040516020818303038152906040528051906020012082604051602001610897919061218b565b6040516020818303038152906040528051906020012014905092915050565b60606002826040516108c8919061218b565b9081526020016040518091039020805480602002602001604051908101604052809291908181526020016000905b82821015610a4c57838290600052602060002090600202016040518060400160405290816000820180546109299061223d565b80601f01602080910402602001604051908101604052809291908181526020018280546109559061223d565b80156109a25780601f10610977576101008083540402835291602001916109a2565b820191906000526020600020905b81548152906001019060200180831161098557829003601f168201915b505050505081526020016001820180546109bb9061223d565b80601f01602080910402602001604051908101604052809291908181526020018280546109e79061223d565b8015610a345780601f10610a0957610100808354040283529160200191610a34565b820191906000526020600020905b815481529060010190602001808311610a1757829003601f168201915b505050505081525050815260200190600101906108f6565b505050509050919050565b600382604051610a67919061218b565b908152602001604051809103902081604051610a83919061218b565b908152602001604051809103902060009054906101000a900460ff16610ade576040517f08c379a0000000000000000000000000000000000000000000000000000000008152600401610ad5906127c5565b60405180910390fd5b6000600383604051610af0919061218b565b908152602001604051809103902082604051610b0c919061218b565b908152602001604051809103902060006101000a81548160ff02191690831515021790555060005b600282604051610b44919061218b565b908152602001604051809103902080549050811015610d455782604051602001610b6e919061218b565b60405160208183030381529060405280519060200120600283604051610b94919061218b565b90815260200160405180910390208281548110610bb457610bb36125cd565b5b9060005260206000209060020201600001604051602001610bd5919061267f565b6040516020818303038152906040528051906020012003610d3257600282604051610c00919061218b565b90815260200160405180910390206001600284604051610c20919061218b565b908152602001604051809103902080549050610c3c91906127e5565b81548110610c4d57610c4c6125cd565b5b9060005260206000209060020201600283604051610c6b919061218b565b90815260200160405180910390208281548110610c8b57610c8a6125cd565b5b906000526020600020906002020160008201816000019081610cad919061282f565b5060018201816001019081610cc2919061282f565b50905050600282604051610cd6919061218b565b9081526020016040518091039020805480610cf457610cf3612917565b5b600190038181906000526020600020906002020160008082016000610d199190611894565b600182016000610d299190611894565b50509055610d45565b8080610d3d906126c5565b915050610b34565b507f502fecaa9315741adc5cf1c7eb09b5be66e16f3afe8e1b5cee4cdbc1053ecacb8282604051610d77929190612946565b60405180910390a15050565b6001818051602081018201805184825260208301602085012081835280955050505050506000915090508060000160009054906101000a900473ffffffffffffffffffffffffffffffffffffffff1690806001018054610de29061223d565b80601f0160208091040260200160405190810160405280929190818152602001828054610e0e9061223d565b8015610e5b5780601f10610e3057610100808354040283529160200191610e5b565b820191906000526020600020905b815481529060010190602001808311610e3e57829003601f168201915b505050505090806002018054610e709061223d565b80601f0160208091040260200160405190810160405280929190818152602001828054610e9c9061223d565b8015610ee95780601f10610ebe57610100808354040283529160200191610ee9565b820191906000526020600020905b815481529060010190602001808311610ecc57829003601f168201915b505050505090806003018054610efe9061223d565b80601f0160208091040260200160405190810160405280929190818152602001828054610f2a9061223d565b8015610f775780601f10610f4c57610100808354040283529160200191610f77565b820191906000526020600020905b815481529060010190602001808311610f5a57829003601f168201915b505050505090806004018054610f8c9061223d565b80601f0160208091040260200160405190810160405280929190818152602001828054610fb89061223d565b80156110055780601f10610fda57610100808354040283529160200191611005565b820191906000526020600020905b815481529060010190602001808311610fe857829003601f168201915b50505050509080600501805461101a9061223d565b80601f01602080910402602001604051908101604052809291908181526020018280546110469061223d565b80156110935780601f1061106857610100808354040283529160200191611093565b820191906000526020600020905b81548152906001019060200180831161107657829003601f168201915b5050505050908060060180546110a89061223d565b80601f01602080910402602001604051908101604052809291908181526020018280546110d49061223d565b80156111215780601f106110f657610100808354040283529160200191611121565b820191906000526020600020905b81548152906001019060200180831161110457829003601f168201915b5050505050908060070180546111369061223d565b80601f01602080910402602001604051908101604052809291908181526020018280546111629061223d565b80156111af5780601f10611184576101008083540402835291602001916111af565b820191906000526020600020905b81548152906001019060200180831161119257829003601f168201915b5050505050908060080180546111c49061223d565b80601f01602080910402602001604051908101604052809291908181526020018280546111f09061223d565b801561123d5780601f106112125761010080835404028352916020019161123d565b820191906000526020600020905b81548152906001019060200180831161122057829003601f168201915b5050505050905089565b6000600383604051611259919061218b565b908152602001604051809103902082604051611275919061218b565b908152602001604051809103902060009054906101000a900460ff16905092915050565b60006060806060806060806000886040516112b4919061218b565b908152602001604051809103902060009054906101000a900460ff1661130f576040517f08c379a000000000000000000000000000000000000000000000000000000000815260040161130690612759565b60405180910390fd5b6000600189604051611321919061218b565b9081526020016040518091039020604051806101200160405290816000820160009054906101000a900473ffffffffffffffffffffffffffffffffffffffff1673ffffffffffffffffffffffffffffffffffffffff1673ffffffffffffffffffffffffffffffffffffffff1681526020016001820180546113a19061223d565b80601f01602080910402602001604051908101604052809291908181526020018280546113cd9061223d565b801561141a5780601f106113ef5761010080835404028352916020019161141a565b820191906000526020600020905b8154815290600101906020018083116113fd57829003601f168201915b505050505081526020016002820180546114339061223d565b80601f016020809104026020016040519081016040528092919081815260200182805461145f9061223d565b80156114ac5780601f10611481576101008083540402835291602001916114ac565b820191906000526020600020905b81548152906001019060200180831161148f57829003601f168201915b505050505081526020016003820180546114c59061223d565b80601f01602080910402602001604051908101604052809291908181526020018280546114f19061223d565b801561153e5780601f106115135761010080835404028352916020019161153e565b820191906000526020600020905b81548152906001019060200180831161152157829003601f168201915b505050505081526020016004820180546115579061223d565b80601f01602080910402602001604051908101604052809291908181526020018280546115839061223d565b80156115d05780601f106115a5576101008083540402835291602001916115d0565b820191906000526020600020905b8154815290600101906020018083116115b357829003601f168201915b505050505081526020016005820180546115e99061223d565b80601f01602080910402602001604051908101604052809291908181526020018280546116159061223d565b80156116625780601f1061163757610100808354040283529160200191611662565b820191906000526020600020905b81548152906001019060200180831161164557829003601f168201915b5050505050815260200160068201805461167b9061223d565b80601f01602080910402602001604051908101604052809291908181526020018280546116a79061223d565b80156116f45780601f106116c9576101008083540402835291602001916116f4565b820191906000526020600020905b8154815290600101906020018083116116d757829003601f168201915b5050505050815260200160078201805461170d9061223d565b80601f01602080910402602001604051908101604052809291908181526020018280546117399061223d565b80156117865780601f1061175b57610100808354040283529160200191611786565b820191906000526020600020905b81548152906001019060200180831161176957829003601f168201915b5050505050815260200160088201805461179f9061223d565b80601f01602080910402602001604051908101604052809291908181526020018280546117cb9061223d565b80156118185780601f106117ed57610100808354040283529160200191611818565b820191906000526020600020905b8154815290600101906020018083116117fb57829003601f168201915b5050505050815250509050806000015181602001518260400151836060015184608001518560a001518660c00151975097509750975097509750975050919395979092949650565b60008082604051611871919061218b565b908152602001604051809103902060009054906101000a900460ff169050919050565b5080546118a09061223d565b6000825580601f106118b257506118d1565b601f0160209004906000526020600020908101906118d091906118d4565b5b50565b5b808211156118ed5760008160009055506001016118d5565b5090565b6000604051905090565b600080fd5b600080fd5b600080fd5b600080fd5b6000601f19601f8301169050919050565b7f4e487b7100000000000000000000000000000000000000000000000000000000600052604160045260246000fd5b6119588261190f565b810181811067ffffffffffffffff8211171561197757611976611920565b5b80604052505050565b600061198a6118f1565b9050611996828261194f565b919050565b600067ffffffffffffffff8211156119b6576119b5611920565b5b6119bf8261190f565b9050602081019050919050565b82818337600083830152505050565b60006119ee6119e98461199b565b611980565b905082815260208101848484011115611a0a57611a0961190a565b5b611a158482856119cc565b509392505050565b600082601f830112611a3257611a31611905565b5b8135611a428482602086016119db565b91505092915050565b60008060408385031215611a6257611a616118fb565b5b600083013567ffffffffffffffff811115611a8057611a7f611900565b5b611a8c85828601611a1d565b925050602083013567ffffffffffffffff811115611aad57611aac611900565b5b611ab985828601611a1d565b9150509250929050565b60008115159050919050565b611ad881611ac3565b82525050565b6000602082019050611af36000830184611acf565b92915050565b600060208284031215611b0f57611b0e6118fb565b5b600082013567ffffffffffffffff811115611b2d57611b2c611900565b5b611b3984828501611a1d565b91505092915050565b600073ffffffffffffffffffffffffffffffffffffffff82169050919050565b6000611b6d82611b42565b9050919050565b611b7d81611b62565b8114611b8857600080fd5b50565b600081359050611b9a81611b74565b92915050565b60008060008060008060008060006101208a8c031215611bc357611bc26118fb565b5b6000611bd18c828d01611b8b565b99505060208a013567ffffffffffffffff811115611bf257611bf1611900565b5b611bfe8c828d01611a1d565b98505060408a013567ffffffffffffffff811115611c1f57611c1e611900565b5b611c2b8c828d01611a1d565b97505060608a013567ffffffffffffffff811115611c4c57611c4b611900565b5b611c588c828d01611a1d565b96505060808a013567ffffffffffffffff811115611c7957611c78611900565b5b611c858c828d01611a1d565b95505060a08a013567ffffffffffffffff811115611ca657611ca5611900565b5b611cb28c828d01611a1d565b94505060c08a013567ffffffffffffffff811115611cd357611cd2611900565b5b611cdf8c828d01611a1d565b93505060e08a013567ffffffffffffffff811115611d0057611cff611900565b5b611d0c8c828d01611a1d565b9250506101008a013567ffffffffffffffff811115611d2e57611d2d611900565b5b611d3a8c828d01611a1d565b9150509295985092959850929598565b600080600060608486031215611d6357611d626118fb565b5b600084013567ffffffffffffffff811115611d8157611d80611900565b5b611d8d86828701611a1d565b935050602084013567ffffffffffffffff811115611dae57611dad611900565b5b611dba86828701611a1d565b925050604084013567ffffffffffffffff811115611ddb57611dda611900565b5b611de786828701611a1d565b9150509250925092565b600081519050919050565b600082825260208201905092915050565b6000819050602082019050919050565b600081519050919050565b600082825260208201905092915050565b60005b83811015611e57578082015181840152602081019050611e3c565b60008484015250505050565b6000611e6e82611e1d565b611e788185611e28565b9350611e88818560208601611e39565b611e918161190f565b840191505092915050565b60006040830160008301518482036000860152611eb98282611e63565b91505060208301518482036020860152611ed38282611e63565b9150508091505092915050565b6000611eec8383611e9c565b905092915050565b6000602082019050919050565b6000611f0c82611df1565b611f168185611dfc565b935083602082028501611f2885611e0d565b8060005b85811015611f645784840389528151611f458582611ee0565b9450611f5083611ef4565b925060208a01995050600181019050611f2c565b50829750879550505050505092915050565b60006020820190508181036000830152611f908184611f01565b905092915050565b611fa181611b62565b82525050565b600082825260208201905092915050565b6000611fc382611e1d565b611fcd8185611fa7565b9350611fdd818560208601611e39565b611fe68161190f565b840191505092915050565b600061012082019050612007600083018c611f98565b8181036020830152612019818b611fb8565b9050818103604083015261202d818a611fb8565b905081810360608301526120418189611fb8565b905081810360808301526120558188611fb8565b905081810360a08301526120698187611fb8565b905081810360c083015261207d8186611fb8565b905081810360e08301526120918185611fb8565b90508181036101008301526120a68184611fb8565b90509a9950505050505050505050565b600060e0820190506120cb600083018a611f98565b81810360208301526120dd8189611fb8565b905081810360408301526120f18188611fb8565b905081810360608301526121058187611fb8565b905081810360808301526121198186611fb8565b905081810360a083015261212d8185611fb8565b905081810360c08301526121418184611fb8565b905098975050505050505050565b600081905092915050565b600061216582611e1d565b61216f818561214f565b935061217f818560208601611e39565b80840191505092915050565b6000612197828461215a565b915081905092915050565b7f50617469656e7420616c72656164792072656769737465726564000000000000600082015250565b60006121d8601a83611fa7565b91506121e3826121a2565b602082019050919050565b60006020820190508181036000830152612207816121cb565b9050919050565b7f4e487b7100000000000000000000000000000000000000000000000000000000600052602260045260246000fd5b6000600282049050600182168061225557607f821691505b6020821081036122685761226761220e565b5b50919050565b60008190508160005260206000209050919050565b60006020601f8301049050919050565b600082821b905092915050565b6000600883026122d07fffffffffffffffffffffffffffffffffffffffffffffffffffffffffffffffff82612293565b6122da8683612293565b95508019841693508086168417925050509392505050565b6000819050919050565b6000819050919050565b600061232161231c612317846122f2565b6122fc565b6122f2565b9050919050565b6000819050919050565b61233b83612306565b61234f61234782612328565b8484546122a0565b825550505050565b600090565b612364612357565b61236f818484612332565b505050565b5b818110156123935761238860008261235c565b600181019050612375565b5050565b601f8211156123d8576123a98161226e565b6123b284612283565b810160208510156123c1578190505b6123d56123cd85612283565b830182612374565b50505b505050565b600082821c905092915050565b60006123fb600019846008026123dd565b1980831691505092915050565b600061241483836123ea565b9150826002028217905092915050565b61242d82611e1d565b67ffffffffffffffff81111561244657612445611920565b5b612450825461223d565b61245b828285612397565b600060209050601f83116001811461248e576000841561247c578287015190505b6124868582612408565b8655506124ee565b601f19841661249c8661226e565b60005b828110156124c45784890151825560018201915060208501945060208101905061249f565b868310156124e157848901516124dd601f8916826123ea565b8355505b6001600288020188555050505b505050505050565b600060608201905081810360008301526125108186611fb8565b905081810360208301526125248185611fb8565b90506125336040830184611f98565b949350505050565b7f566965772041636365737320616c726561647920676976656e20746f2074686560008201527f20446f63746f7221000000000000000000000000000000000000000000000000602082015250565b6000612597602883611fa7565b91506125a28261253b565b604082019050919050565b600060208201905081810360008301526125c68161258a565b9050919050565b7f4e487b7100000000000000000000000000000000000000000000000000000000600052603260045260246000fd5b600081546126098161223d565b612613818661214f565b9450600182166000811461262e576001811461264357612676565b60ff1983168652811515820286019350612676565b61264c8561226e565b60005b8381101561266e5781548189015260018201915060208101905061264f565b838801955050505b50505092915050565b600061268b82846125fc565b915081905092915050565b7f4e487b7100000000000000000000000000000000000000000000000000000000600052601160045260246000fd5b60006126d0826122f2565b91507fffffffffffffffffffffffffffffffffffffffffffffffffffffffffffffffff820361270257612701612696565b5b600182019050919050565b7f50617469656e74206e6f74207265676973746572656400000000000000000000600082015250565b6000612743601683611fa7565b915061274e8261270d565b602082019050919050565b6000602082019050818103600083015261277281612736565b9050919050565b7f4e6f207065726d697373696f6e20746f207265766f6b65210000000000000000600082015250565b60006127af601883611fa7565b91506127ba82612779565b602082019050919050565b600060208201905081810360008301526127de816127a2565b9050919050565b60006127f0826122f2565b91506127fb836122f2565b925082820390508181111561281357612812612696565b5b92915050565b6000815490506128288161223d565b9050919050565b81810361283d575050612915565b61284682612819565b67ffffffffffffffff81111561285f5761285e611920565b5b612869825461223d565b612874828285612397565b6000601f8311600181146128a35760008415612891578287015490505b61289b8582612408565b86555061290e565b601f1984166128b18761226e565b96506128bc8661226e565b60005b828110156128e4578489015482556001820191506001850194506020810190506128bf565b8683101561290157848901546128fd601f8916826123ea565b8355505b6001600288020188555050505b5050505050505b565b7f4e487b7100000000000000000000000000000000000000000000000000000000600052603160045260246000fd5b600060408201905081810360008301526129608185611fb8565b905081810360208301526129748184611fb8565b9050939250505056fea26469706673582212207083df2a928b3dfbf678d25e178cf9f6377ebe653e4aed556f11e3e48fda135764736f6c63430008130033",
  "immutableReferences": {},
  "source": "// SPDX-License-Identifier: MIT\r\npragma solidity ^0.8.19;\r\n\r\ncontract PatientRegistration {\r\n    struct Patient {\r\n        address walletAddress;\r\n        string name;\r\n        string dateOfBirth;\r\n        string gender;\r\n        string bloodGroup;\r\n        string homeAddress;\r\n        string email;\r\n        string hhNumber;\r\n        string password;\r\n    }\r\n\r\n    struct PatientList{\r\n        string patient_number;\r\n        string patient_name;\r\n    }\r\n\r\n    mapping(string => bool) public isPatientRegistered;\r\n    mapping(string => Patient) public patients;\r\n    mapping(string => PatientList[]) private Dpermission;\r\n    mapping(string => mapping(string => bool)) public doctorPermissions;\r\n\r\n    event PatientRegistered(string hhNumber, string name, address walletAddress);\r\n    event DoctorPermissionRevoked(string patientNumber, string doctorNumber);\r\n\r\n    function registerPatient(\r\n        address _walletAddress,\r\n        string memory _name,\r\n        string memory _dateOfBirth,\r\n        string memory _gender,\r\n        string memory _bloodGroup,\r\n        string memory _homeAddress,\r\n        string memory _email,\r\n        string memory _hhNumber,\r\n        string memory _password\r\n    ) external {\r\n        require(!isPatientRegistered[_hhNumber], \"Patient already registered\");\r\n\r\n        Patient memory newPatient = Patient({\r\n            walletAddress: _walletAddress,\r\n            name: _name,\r\n            dateOfBirth: _dateOfBirth,\r\n            gender: _gender,\r\n            bloodGroup: _bloodGroup,\r\n            homeAddress: _homeAddress,\r\n            email: _email,    \r\n            hhNumber: _hhNumber,        \r\n            password: _password // Store password in the struct\r\n        });\r\n\r\n        patients[_hhNumber] = newPatient;\r\n        isPatientRegistered[_hhNumber] = true;\r\n        emit PatientRegistered(_hhNumber, _name, _walletAddress);\r\n    }\r\n\r\n    function isRegisteredPatient(string memory _hhNumber) external view returns (bool) {\r\n        return isPatientRegistered[_hhNumber];\r\n    }\r\n\r\n    // Add a function to validate patient's password\r\n    function validatePassword(string memory _hhNumber, string memory _password) external view returns (bool) {\r\n        require(isPatientRegistered[_hhNumber], \"Patient not registered\");\r\n        return keccak256(abi.encodePacked(_password)) == keccak256(abi.encodePacked(patients[_hhNumber].password));\r\n    }\r\n\r\n    function getPatientDetails(string memory _hhNumber) external view returns (\r\n    address walletAddress,\r\n    string memory name,\r\n    string memory dateOfBirth,\r\n    string memory gender,\r\n    string memory bloodGroup,\r\n    string memory homeAddress,\r\n    string memory email\r\n    ) {\r\n        require(isPatientRegistered[_hhNumber], \"Patient not registered\");\r\n        Patient memory patient = patients[_hhNumber];\r\n        return (patient.walletAddress, patient.name, patient.dateOfBirth, patient.gender, patient.bloodGroup, patient.homeAddress, patient.email);\r\n    }\r\n\r\n    function grantPermission(\r\n        string memory _patientNumber,\r\n        string memory _doctorNumber,\r\n        string memory _patientName\r\n    ) external {\r\n        require(!doctorPermissions[_patientNumber][_doctorNumber], \"View Access already given to the Doctor!\");\r\n        // Check if the patient number already exists in the list\r\n        bool exists = false;\r\n        for (uint i = 0; i < Dpermission[_doctorNumber].length; i++) {\r\n            if (keccak256(abi.encodePacked(Dpermission[_doctorNumber][i].patient_number)) == keccak256(abi.encodePacked(_patientNumber))) {\r\n                exists = true;\r\n                break;\r\n            }\r\n        }\r\n\r\n        // If the patient number does not exist, add it to the list\r\n        if (!exists) {\r\n            PatientList memory newRecord = PatientList(\r\n                _patientNumber,\r\n                _patientName\r\n            );\r\n            Dpermission[_doctorNumber].push(newRecord);\r\n        }\r\n        doctorPermissions[_patientNumber][_doctorNumber] = true;\r\n    }\r\n\r\n    function revokePermission(string memory _patientNumber, string memory _doctorNumber) external {\r\n        require(doctorPermissions[_patientNumber][_doctorNumber], \"No permission to revoke!\");\r\n\r\n        doctorPermissions[_patientNumber][_doctorNumber] = false;\r\n\r\n        // Remove patient from doctor's list\r\n        for (uint i = 0; i < Dpermission[_doctorNumber].length; i++) {\r\n            if (keccak256(abi.encodePacked(Dpermission[_doctorNumber][i].patient_number)) == keccak256(abi.encodePacked(_patientNumber))) {\r\n                Dpermission[_doctorNumber][i] = Dpermission[_doctorNumber][Dpermission[_doctorNumber].length - 1];\r\n                Dpermission[_doctorNumber].pop();\r\n                break;\r\n            }\r\n        }\r\n\r\n        emit DoctorPermissionRevoked(_patientNumber, _doctorNumber);\r\n    }\r\n\r\n    function isPermissionGranted(string memory _patientNumber,string memory _doctorNumber) external view returns (bool) {\r\n        return doctorPermissions[_patientNumber][_doctorNumber];\r\n    }\r\n\r\n    function getPatientList(string memory _doctorNumber) public view returns (PatientList[] memory) {\r\n        return Dpermission[_doctorNumber];\r\n    }\r\n}\r\n",
  "sourcePath": "D:\\final_year_project\\src\\contracts\\PatientRegistration.sol",
  "compiler": {
    "name": "solc",
    "version": "0.8.19+commit.7dd6d404.Emscripten.clang"
  },
  "schemaVersion": "3.4.16",
  "updatedAt": "2025-04-07T20:14:20.890Z",
  "networkType": "ethereum",
  "devdoc": {
    "kind": "dev",
    "methods": {},
    "version": 1
  },
  "userdoc": {
    "kind": "user",
    "methods": {},
    "version": 1
  }
}