{
  "contractName": "UploadEHR",
  "abi": [
    {
      "anonymous": false,
      "inputs": [
        {
          "indexed": false,
          "internalType": "string",
          "name": "hhNumber",
          "type": "string"
        },
        {
          "indexed": false,
          "internalType": "string",
          "name": "doctorNumber",
          "type": "string"
        }
      ],
      "name": "DoctorPermissionGranted",
      "type": "event"
    },
    {
      "anonymous": false,
      "inputs": [
        {
          "indexed": false,
          "internalType": "string",
          "name": "hhNumber",
          "type": "string"
        },
        {
          "indexed": false,
          "internalType": "string",
          "name": "doctorNumber",
          "type": "string"
        }
      ],
      "name": "DoctorPermissionRevoked",
      "type": "event"
    },
    {
      "anonymous": false,
      "inputs": [
        {
          "indexed": false,
          "internalType": "string",
          "name": "hhNumber",
          "type": "string"
        },
        {
          "indexed": false,
          "internalType": "string",
          "name": "ipfsHash",
          "type": "string"
        },
        {
          "indexed": false,
          "internalType": "uint256",
          "name": "timestamp",
          "type": "uint256"
        }
      ],
      "name": "MedicalRecordUploaded",
      "type": "event"
    },
    {
      "inputs": [
        {
          "internalType": "string",
          "name": "_hhNumber",
          "type": "string"
        },
        {
          "internalType": "string",
          "name": "_ipfsHash",
          "type": "string"
        }
      ],
      "name": "uploadMedicalRecord",
      "outputs": [],
      "stateMutability": "nonpayable",
      "type": "function"
    },
    {
      "inputs": [
        {
          "internalType": "string",
          "name": "_hhNumber",
          "type": "string"
        },
        {
          "internalType": "string",
          "name": "_doctorNumber",
          "type": "string"
        }
      ],
      "name": "getMedicalRecords",
      "outputs": [
        {
          "components": [
            {
              "internalType": "string",
              "name": "ipfsHash",
              "type": "string"
            },
            {
              "internalType": "uint256",
              "name": "timestamp",
              "type": "uint256"
            }
          ],
          "internalType": "struct UploadEHR.MedicalRecord[]",
          "name": "",
          "type": "tuple[]"
        }
      ],
      "stateMutability": "view",
      "type": "function",
      "constant": true
    },
    {
      "inputs": [
        {
          "internalType": "string",
          "name": "_hhNumber",
          "type": "string"
        }
      ],
      "name": "getMyRecords",
      "outputs": [
        {
          "components": [
            {
              "internalType": "string",
              "name": "ipfsHash",
              "type": "string"
            },
            {
              "internalType": "uint256",
              "name": "timestamp",
              "type": "uint256"
            }
          ],
          "internalType": "struct UploadEHR.MedicalRecord[]",
          "name": "",
          "type": "tuple[]"
        }
      ],
      "stateMutability": "view",
      "type": "function",
      "constant": true
    },
    {
      "inputs": [
        {
          "internalType": "string",
          "name": "_hhNumber",
          "type": "string"
        },
        {
          "internalType": "string",
          "name": "_doctorNumber",
          "type": "string"
        }
      ],
      "name": "grantDoctorPermission",
      "outputs": [],
      "stateMutability": "nonpayable",
      "type": "function"
    },
    {
      "inputs": [
        {
          "internalType": "string",
          "name": "_hhNumber",
          "type": "string"
        },
        {
          "internalType": "string",
          "name": "_doctorNumber",
          "type": "string"
        }
      ],
      "name": "revokeDoctorPermission",
      "outputs": [],
      "stateMutability": "nonpayable",
      "type": "function"
    },
    {
      "inputs": [
        {
          "internalType": "string",
          "name": "_hhNumber",
          "type": "string"
        },
        {
          "internalType": "string",
          "name": "_doctorNumber",
          "type": "string"
        }
      ],
      "name": "isDoctorAuthorized",
      "outputs": [
        {
          "internalType": "bool",
          "name": "",
          "type": "bool"
        }
      ],
      "stateMutability": "view",
      "type": "function",
      "constant": true
    }
  ],
  "bytecode": "0x608060405234801561001057600080fd5b50610f15806100206000396000f3fe608060405234801561001057600080fd5b50600436106100625760003560e01c80633bef49971461006757806355c71ce2146100835780636be861ff1461009f5780636e168ed8146100cf5780639ca23cf3146100eb578063e33724a21461011b575b600080fd5b610081600480360381019061007c9190610797565b61014b565b005b61009d60048036038101906100989190610797565b6101db565b005b6100b960048036038101906100b49190610797565b61026a565b6040516100c6919061082a565b60405180910390f35b6100e960048036038101906100e49190610797565b6102bc565b005b61010560048036038101906101009190610797565b61037f565b60405161011291906109dc565b60405180910390f35b610135600480360381019061013091906109fe565b610524565b60405161014291906109dc565b60405180910390f35b600060018360405161015d9190610a83565b9081526020016040518091039020826040516101799190610a83565b908152602001604051809103902060006101000a81548160ff0219169083151502179055507f502fecaa9315741adc5cf1c7eb09b5be66e16f3afe8e1b5cee4cdbc1053ecacb82826040516101cf929190610ae4565b60405180910390a15050565b600180836040516101ec9190610a83565b9081526020016040518091039020826040516102089190610a83565b908152602001604051809103902060006101000a81548160ff0219169083151502179055507f92b0608224dacc1e5c4c78bea616815ac6df73a34227ffc9f17cd110570152be828260405161025e929190610ae4565b60405180910390a15050565b600060018360405161027c9190610a83565b9081526020016040518091039020826040516102989190610a83565b908152602001604051809103902060009054906101000a900460ff16905092915050565b600060405180604001604052808381526020014281525090506000836040516102e59190610a83565b908152602001604051809103902081908060018154018082558091505060019003906000526020600020906002020160009091909190915060008201518160000190816103329190610d27565b506020820151816001015550507f25f65e4bf5e53993c8815c687797e4b6907a22a7b90d0fc349591682ec7090fc83834260405161037293929190610e08565b60405180910390a1505050565b606082826001826040516103939190610a83565b9081526020016040518091039020816040516103af9190610a83565b908152602001604051809103902060009054906101000a900460ff1661040a576040517f08c379a000000000000000000000000000000000000000000000000000000000815260040161040190610ebf565b60405180910390fd5b60008560405161041a9190610a83565b9081526020016040518091039020805480602002602001604051908101604052809291908181526020016000905b82821015610516578382906000526020600020906002020160405180604001604052908160008201805461047b90610b4a565b80601f01602080910402602001604051908101604052809291908181526020018280546104a790610b4a565b80156104f45780601f106104c9576101008083540402835291602001916104f4565b820191906000526020600020905b8154815290600101906020018083116104d757829003601f168201915b5050505050815260200160018201548152505081526020019060010190610448565b505050509250505092915050565b60606000826040516105369190610a83565b9081526020016040518091039020805480602002602001604051908101604052809291908181526020016000905b82821015610632578382906000526020600020906002020160405180604001604052908160008201805461059790610b4a565b80601f01602080910402602001604051908101604052809291908181526020018280546105c390610b4a565b80156106105780601f106105e557610100808354040283529160200191610610565b820191906000526020600020905b8154815290600101906020018083116105f357829003601f168201915b5050505050815260200160018201548152505081526020019060010190610564565b505050509050919050565b6000604051905090565b600080fd5b600080fd5b600080fd5b600080fd5b6000601f19601f8301169050919050565b7f4e487b7100000000000000000000000000000000000000000000000000000000600052604160045260246000fd5b6106a48261065b565b810181811067ffffffffffffffff821117156106c3576106c261066c565b5b80604052505050565b60006106d661063d565b90506106e2828261069b565b919050565b600067ffffffffffffffff8211156107025761070161066c565b5b61070b8261065b565b9050602081019050919050565b82818337600083830152505050565b600061073a610735846106e7565b6106cc565b90508281526020810184848401111561075657610755610656565b5b610761848285610718565b509392505050565b600082601f83011261077e5761077d610651565b5b813561078e848260208601610727565b91505092915050565b600080604083850312156107ae576107ad610647565b5b600083013567ffffffffffffffff8111156107cc576107cb61064c565b5b6107d885828601610769565b925050602083013567ffffffffffffffff8111156107f9576107f861064c565b5b61080585828601610769565b9150509250929050565b60008115159050919050565b6108248161080f565b82525050565b600060208201905061083f600083018461081b565b92915050565b600081519050919050565b600082825260208201905092915050565b6000819050602082019050919050565b600081519050919050565b600082825260208201905092915050565b60005b838110156108ab578082015181840152602081019050610890565b60008484015250505050565b60006108c282610871565b6108cc818561087c565b93506108dc81856020860161088d565b6108e58161065b565b840191505092915050565b6000819050919050565b610903816108f0565b82525050565b6000604083016000830151848203600086015261092682826108b7565b915050602083015161093b60208601826108fa565b508091505092915050565b60006109528383610909565b905092915050565b6000602082019050919050565b600061097282610845565b61097c8185610850565b93508360208202850161098e85610861565b8060005b858110156109ca57848403895281516109ab8582610946565b94506109b68361095a565b925060208a01995050600181019050610992565b50829750879550505050505092915050565b600060208201905081810360008301526109f68184610967565b905092915050565b600060208284031215610a1457610a13610647565b5b600082013567ffffffffffffffff811115610a3257610a3161064c565b5b610a3e84828501610769565b91505092915050565b600081905092915050565b6000610a5d82610871565b610a678185610a47565b9350610a7781856020860161088d565b80840191505092915050565b6000610a8f8284610a52565b915081905092915050565b600082825260208201905092915050565b6000610ab682610871565b610ac08185610a9a565b9350610ad081856020860161088d565b610ad98161065b565b840191505092915050565b60006040820190508181036000830152610afe8185610aab565b90508181036020830152610b128184610aab565b90509392505050565b7f4e487b7100000000000000000000000000000000000000000000000000000000600052602260045260246000fd5b60006002820490506001821680610b6257607f821691505b602082108103610b7557610b74610b1b565b5b50919050565b60008190508160005260206000209050919050565b60006020601f8301049050919050565b600082821b905092915050565b600060088302610bdd7fffffffffffffffffffffffffffffffffffffffffffffffffffffffffffffffff82610ba0565b610be78683610ba0565b95508019841693508086168417925050509392505050565b6000819050919050565b6000610c24610c1f610c1a846108f0565b610bff565b6108f0565b9050919050565b6000819050919050565b610c3e83610c09565b610c52610c4a82610c2b565b848454610bad565b825550505050565b600090565b610c67610c5a565b610c72818484610c35565b505050565b5b81811015610c9657610c8b600082610c5f565b600181019050610c78565b5050565b601f821115610cdb57610cac81610b7b565b610cb584610b90565b81016020851015610cc4578190505b610cd8610cd085610b90565b830182610c77565b50505b505050565b600082821c905092915050565b6000610cfe60001984600802610ce0565b1980831691505092915050565b6000610d178383610ced565b9150826002028217905092915050565b610d3082610871565b67ffffffffffffffff811115610d4957610d4861066c565b5b610d538254610b4a565b610d5e828285610c9a565b600060209050601f831160018114610d915760008415610d7f578287015190505b610d898582610d0b565b865550610df1565b601f198416610d9f86610b7b565b60005b82811015610dc757848901518255600182019150602085019450602081019050610da2565b86831015610de45784890151610de0601f891682610ced565b8355505b6001600288020188555050505b505050505050565b610e02816108f0565b82525050565b60006060820190508181036000830152610e228186610aab565b90508181036020830152610e368185610aab565b9050610e456040830184610df9565b949350505050565b7f4163636573732064656e69656421205065726d697373696f6e2072657175697260008201527f65642e0000000000000000000000000000000000000000000000000000000000602082015250565b6000610ea9602383610a9a565b9150610eb482610e4d565b604082019050919050565b60006020820190508181036000830152610ed881610e9c565b905091905056fea264697066735822122047ff096c3fbf28aa45514ed742a767e1af3f3fb413ecfeb66032f8a0866adc1464736f6c63430008130033",
  "immutableReferences": {},
  "source": "// SPDX-License-Identifier: MIT\r\npragma solidity ^0.8.19;\r\n\r\ncontract UploadEHR {\r\n    struct MedicalRecord {\r\n        string ipfsHash;\r\n        uint256 timestamp;\r\n    }\r\n\r\n    mapping(string => MedicalRecord[]) private patientRecords;\r\n    mapping(string => mapping(string => bool)) private doctorPermissions;\r\n\r\n    event MedicalRecordUploaded(string hhNumber, string ipfsHash, uint256 timestamp);\r\n    event DoctorPermissionGranted(string hhNumber, string doctorNumber);\r\n    event DoctorPermissionRevoked(string hhNumber, string doctorNumber);\r\n\r\n    // modifier to check for permission\r\n    modifier onlyWithPermission(string memory _hhNumber, string memory _doctorNumber) {\r\n        require(doctorPermissions[_hhNumber][_doctorNumber], \"Access denied! Permission required.\");\r\n        _;\r\n    }\r\n\r\n    // upload record by patient\r\n    function uploadMedicalRecord(string memory _hhNumber, string memory _ipfsHash) external {\r\n        MedicalRecord memory newRecord = MedicalRecord({\r\n            ipfsHash: _ipfsHash,\r\n            timestamp: block.timestamp\r\n        });\r\n\r\n        patientRecords[_hhNumber].push(newRecord);\r\n        emit MedicalRecordUploaded(_hhNumber, _ipfsHash, block.timestamp);\r\n    }\r\n\r\n    // function for viewing records by doctor\r\n    function getMedicalRecords(string memory _hhNumber, string memory _doctorNumber)\r\n        external\r\n        view\r\n        onlyWithPermission(_hhNumber, _doctorNumber)\r\n        returns (MedicalRecord[] memory)\r\n    {\r\n        return patientRecords[_hhNumber];\r\n    }\r\n\r\n    // function for patients to view their own records \r\n    function getMyRecords(string memory _hhNumber) external view returns (MedicalRecord[] memory) {\r\n        return patientRecords[_hhNumber];\r\n    }\r\n\r\n    // grant permission function\r\n    function grantDoctorPermission(string memory _hhNumber, string memory _doctorNumber) external {\r\n        doctorPermissions[_hhNumber][_doctorNumber] = true;\r\n        emit DoctorPermissionGranted(_hhNumber, _doctorNumber);\r\n    }\r\n\r\n    // revoke permission function\r\n    function revokeDoctorPermission(string memory _hhNumber, string memory _doctorNumber) external {\r\n        // require(doctorPermissions[_hhNumber][_doctorNumber], \"No permission to revoke!\");\r\n        doctorPermissions[_hhNumber][_doctorNumber] = false;\r\n        emit DoctorPermissionRevoked(_hhNumber, _doctorNumber);\r\n    }\r\n\r\n    // check permission for doctor\r\n    function isDoctorAuthorized(string memory _hhNumber, string memory _doctorNumber) external view returns (bool) {\r\n        return doctorPermissions[_hhNumber][_doctorNumber];\r\n    }\r\n}\r\n",
  "sourcePath": "D:\\final_year_project\\src\\contracts\\UploadEHR.sol",
  "compiler": {
    "name": "solc",
    "version": "0.8.19+commit.7dd6d404.Emscripten.clang"
  },
  "schemaVersion": "3.4.16",
  "updatedAt": "2025-04-07T20:14:21.207Z",
  "networkType": "ethereum",
  "devdoc": {
    "kind": "dev",
    "methods": {},
    "version": 1
  },
  "userdoc": {
    "kind": "user",
    "methods": {},
    "version": 1
  }
}